:020000040000FA
:06080000EAEF1CF01200FB
:020806001200DE
:0608080016EF04F01200DF
:06081800F3EF05F01200F1
:02081E000100D7
:0C082000FD390000EB0000001200000099
:04082C00DACFE4FF3C
:10083000E2CFDAFFE9CFE4FFEACFE4FFF6CFE4FF4F
:10084000F7CFE4FFF5CFE4FFF3CFE4FFF4CFE4FF0D
:10085000FACFE4FF00EE00F0140EE80403E3EECF5D
:10086000E4FFFBD700EE14F0070EE80403E3EECF3D
:10087000E4FFFBD7E652F2A417D1D59EFC0ED76E4B
:100880003F0ED66ED58E01018D2B000E8E238F2349
:1008900090230101912B000E9223932394230101B5
:1008A000952B000E9623972398230101992B000E78
:1008B0009A239B239C230101072B000E0823000190
:1008C000E52B000EE623320E0001B65D02E20001C8
:1008D000B62B030E0101001901E1015101E17BD0AA
:1008E000020E0101001901E1015138E0010E010180
:1008F000001901E1015107E00101005101E101513D
:1009000001E0CCD0D0D08050100B100A01E0010ED5
:10091000010808E10101026B036B0101002B000ECD
:1009200001231BD00101022B000E03230101F40E51
:10093000D8800255010E035510E20101026B036BD2
:100940000101010E0B1901E10C5107E10101A8B1F0
:10095000AAD00101A8B3A7D0897EA5D080A805D0D0
:1009600001010007000E015B35D00101022B000ED2
:1009700003230101320ED8800255000E03552AE2EE
:10098000000EE66EE66A000EE66EE66A8FEC09F08F
:10099000E552E552E552E552899E899C8A908A98F3
:1009A000020E01010B1901E10C510BE001010B5189
:1009B00001E10C5101E00AD0898E0101076B086B3F
:1009C00005D0040E01010B6F0C6B00D00101002B50
:1009D000000E012368D080A834D0040E01010B1949
:1009E00001E10C5128E0050E01010B1901E10C5148
:1009F0001DE0030E01010B1901E10C5112E0010E83
:100A000001010B1901E10C5107E001010B5101E15A
:100A10000C5101E011D010D0020E01010B6F0C6BD4
:100A20000BD0010E01010B6F0C6B06D0060E0101FD
:100A30000B6F0C6B01D0FF000101002B000E012396
:100A40002CD0050E01010B1901E10C5116E001013A
:100A50000B5101E10C5101E020D00101D00ED880F2
:100A60000755070E085508E2899C050E01010B6F1A
:100A70000C6B0101026B036B10D00101022B000E05
:100A800003230101640ED8800255000E035504E2D1
:100A90000101026B036B897E00D005D0010E0101BC
:100AA000006F016B00D0F2949EA671D00001B66B6E
:100AB0000001BA6B0001BB510F0A64E0010A5EE05D
:100AC000030A44E0010A39E0070A2EE0080A23E09D
:100AD000010A0AE0030A01E058D0B9C0C9FF0001C9
:100AE000B76B0001BB2B52D0C5AC03D0BBC0BAF072
:100AF00011D00001B751B72BEA6A860FE96E000EDC
:100B0000EA22EF50C96E0001B8510001B75D02E161
:100B10000001BB2B3BD0C5AC03D0BBC0BAF003D0A7
:100B2000C5840001BB6B32D0010E0001B911C96E42
:100B30000001B76B0001BB2B29D0C5AC03D0BBC0F3
:100B4000BAF003D0C5860001BB2B20D00001B751FD
:100B5000B72BEA6A860FE96E000EEA22C9CFEFFFD3
:100B60000001B8510001B75D04E2C59A0001BB075E
:100B700003D0C58A0001BB2BC58808D0C5840001FD
:100B8000BB2B04D00001BB6B01D000D09E96A1A668
:100B900006D0A196400E0001BB110001BA6FE552CC
:100BA00000EE1AF0070EE80403E3E5CFEDFFFBD7F4
:100BB00000EE13F0140EE80403E3E5CFEDFFFBD7DE
:100BC000E5CFFAFFE5CFF4FFE5CFF3FFE5CFF5FF83
:100BD000E5CFF7FFE5CFF6FFE5CFEAFFE5CFE9FF89
:100BE000E5CFDAFF1100D8CFE4FFE0CFE4FFE46EF9
:100BF000DACFE4FFE2CFDAFFE9CFE4FFEACFE4FFA8
:100C0000E6529EAC2CD19E9CC4CF06F1C3CF05F119
:100C100001010451EA6A9E0FE96E010EEA22EF50CB
:100C2000020801E09BD001010A3504E209510308E2
:100C3000000E0A5501E391D005C105F106C106F188
:100C40000101FF0ED8800557030E0657010E010162
:100C5000D89005370637E806FBE10101900E055DE7
:100C6000010E065905E20101900E056F010E066F97
:100C7000900E0101055F010E0101065B0101FF0EEF
:100C8000D8800555030E065504E201010569030EDF
:100C9000066F01010451E96EEA6AD890E936EA3636
:100CA0000D0EE926010EEA22EE5001010527EE5055
:100CB0000101062305C11BF006C11CF0010E0F0B3C
:100CC00005E0D8901C321B32E806FBE1010104511B
:100CD000E96EEA6AD890E936EA360D0EE926010E89
:100CE000EA221BC0EEFF1CC0EDFF0101096B0A6B7D
:100CF00001010451090A2EE0010A29E00F0A24E04B
:100D0000010A1FE0030A1AE0010A15E0070A10E0D1
:100D1000010A0BE0030A06E0010A01E01ED09290EE
:100D200089801BD09292898218D09294898415D0A0
:100D30009296898612D0929A898A0FD093948A8447
:100D40000CD093968A8609D093928A8206D0939883
:100D50008A8803D093908A8000D02CD0010104515E
:100D6000E96EEA6AD890E936EA360D0EE926010EF8
:100D7000EA22EE5001010527EE500101062305C1CC
:100D80001BF006C11CF0010E0F0B05E0D8901C32C1
:100D90001B32E806FBE101010451E96EEA6AD890D2
:100DA000E936EA360D0EE926010EEA221BC0EEFFF7
:100DB0001CC0EDFF0A0E1B6E0101042B0101045142
:100DC000D8801B5402E30101046B01010451EA6A5B
:100DD0009E0FE96E010EEA22EF50020837E1010191
:100DE000092B000E0A2301010A3504E20951030808
:100DF000000E0A552BE201010451090A25E0010AFF
:100E000021E00F0A1DE0010A19E0030A15E0010ABA
:100E100011E0070A0DE0010A09E0030A05E0010AF2
:100E200001E014D0928012D0928210D092840ED021
:100E300092860CD0928A0AD0938408D0938606D0EA
:100E4000938204D0938802D0938000D00101045192
:100E5000EA6AEB0FE96E000EEA22EF50C26E9EAA1C
:100E600069D0ABA403D0AECFE9F064D0ABA203D07D
:100E7000AB98AB885FD0AECFE9F00001EA51050A2C
:100E80003DE0010A31E0070A25E0010A19E0030A02
:100E90000DE0010A01E03BD0520E0001E95D02E1E4
:100EA000010E01D0000E0001EA6F31D0650E000185
:100EB000E95D02E1020E01D0000E0001EA6F27D0C9
:100EC000730E0001E95D02E1030E01D0000E000186
:100ED000EA6F1DD0650E0001E95D02E1040E01D04C
:100EE000000E0001EA6F13D0740E0001E95D02E10B
:100EF000050E01D0000E0001EA6F09D00D0E0001B1
:100F0000E95D02E1FF0002D00001EA6B00D00001C0
:100F1000E751EA6AC40FE96E000EEA22E9C0EFFF6A
:100F20001F0E1B6E0001E72B0001E7511B5C02E264
:100F30000001E76BE552E5CFEAFFE5CFE9FFE5CF3A
:100F4000DAFFE550E5CFE0FFE5CFD8FF1000D9CFBD
:100F5000E6FFE1CFD9FF030EE126F00ED36EC00EFF
:100F60009B6E01010B6B0C6B006B016B026B036BD7
:100F7000010EDB6A020EDB6A010EDBCF14F0020EFB
:100F8000DBCF15F0D890155004E61A0E145C000E55
:100F900015581AE2010EDBCFE9FF020EDBCFEAFFA4
:100FA000D890E936EA36D890E936EA36250EE926B1
:100FB000010EEA22EE6AEE6AEE6AEE6A010EDB2AA2
:100FC000020EDAE3DB2AD8D7010EDB6A020EDB6AF7
:100FD000010EDBCF14F0020EDBCF15F0D8901550C8
:100FE00004E6040E145C000E15581AE2010EDBCF65
:100FF000E9FF020EDBCFEAFFD890E936EA36D89057
:10100000E936EA368D0EE926010EEA22EE6AEE6A2C
:10101000EE6AEE6A010EDB2A020EDAE3DB2AD8D78B
:10102000010EDB6A020EDB6A010EDBCF14F0020E4A
:10103000DBCF15F0D890155004E60A0E145C000EB4
:10104000155811E2010EDBCFE9FF020EDBCFEAFFFC
:101050009E0EE926010EEA22010EEF6EDB2A020E39
:10106000E3E3DB2AE1D70101216B226B236B246BC5
:10107000046B096B0A6BA86BA96B896A3F0EDF6E64
:10108000DF50926E8A6A1F0EDF6EDF50936E180E6D
:101090008B6E980E946E020ED56EFC0ED76E3F0EC0
:1010A000D66ED58EF294F28AF184B00EB16EA29211
:1010B000A192A092B1809D92010ECA6ECC68CB68BD
:1010C000CA849D6F000E236F246B216F226BE66E26
:1010D000E66AE66EE66A8DD8E552E552E552E552DB
:1010E0009F9C9D8CBE0EC06E020EC16E010104510C
:1010F000EA6AEB0FE96E000EEA22EF50C26E11ECC5
:1011000015F01DEC19F0D09CD08EF28EF28CE0EC34
:1011100019F0580E146E390E156E166A14C0E6FFDB
:10112000E66E16C0E6FF60EC15F0E552E552E552BA
:101130003EEC17F0010E0101006F016B8050100BA7
:10114000100A01E0010E0108F9E001010B510C1138
:1011500003E1010E0B6F0C6B898E030EE15C02E262
:10116000E16AE552E16EE552E7CFD9FF1200EFDE0A
:10117000F40EE66E010EE66EA8D8E552E5520101C6
:10118000076B086BA6EC15F0000902E0ACEC15F05B
:10119000050E01010B1901E10C5128E0060E0B1997
:1011A00001E10C5123E0020E0B1901E10C5116E094
:1011B000030E0B1901E10C5111E0010E0B19E2E1D4
:1011C0000C51E0E1640E075D000E0859DBE3076B8C
:1011D000086BA8A1D7D769EC17F0D4D70BEC1CF09B
:1011E000898E010E01010B6F0C6BCCD73DDBBADB96
:1011F000C9D7D9CFE6FFE1CFD9FF040EE126FD0E16
:10120000DBCF14F0FE0EDBCF15F0FF0ED8801454A8
:10121000030E155407E2FD0EDB68030EF36EFE0E9F
:10122000F3CFDBFFFB0EDBCF14F0FC0EDBCF15F0B2
:10123000FF0ED8801454030E155407E2FB0EDB6832
:10124000030EF36EFC0EF3CFDBFFFB0EDBCF14F0CF
:10125000FC0EDBCF15F0060ED89014361536E804D8
:10126000FBE114C0DEFF15C0DDFFFD0EDBCF14F087
:10127000FE0EDBCF15F0060ED89014361536E804B6
:10128000FBE1020E14C0DBFF030E15C0DBFF010EF5
:10129000DB50BE6E030EDB50BB6EDF50E840E84013
:1012A0003F0B300B0C09BD6E020EDB40E8403F0BDC
:1012B000300B0C09BA6E040EE15C02E2E16AE55201
:1012C000E16EE552E7CFD9FF1200D9CFE6FFE1CFBB
:1012D000D9FF020EE126F29A0101076B086BF28A30
:1012E000F29A07C1DEFF08C1DDFFF28ADECF14F0FB
:1012F000DDCF15F0FD0EDBCF16F0FE0EDBCF17F0C5
:101300001650145C17501558EBE3020EE15C02E234
:10131000E16AE552E16EE552E7CFD9FF1200D9CF7D
:10132000E6FFE1CFD9FF080EE12621C114F022C16A
:1013300015F0FD0EDB50141811E1FE0EDB501518F0
:101340000DE123C116F024C117F0FB0EDB50161877
:1013500005E1FC0EDB50171801E104D1000EE66E2A
:10136000E66AE66EE66A45DFE552E552E552E55289
:101370008B9A8B908A9C8A9AA092A192B190B36822
:10138000050EB26EB180FD0EDBCF14F0FE0EDBCF8A
:1013900015F0153419E214500008000E155414E22B
:1013A000010EF36E040EF3CFDBFF060EDB6AFD0EBB
:1013B000DBCF14F0FE0EDBCF15F0030ED890143601
:1013C0001536E806FBE120D0FD0EDBCF14F0FE0E53
:1013D000DBCF15F0800E151420E0040EDB6A010E41
:1013E000F36E060EF3CFDBFFFD0EDBCF14F0FE0E27
:1013F000DBCF15F0146C151E000E1522030ED890CD
:1014000014361536E806FBE1640E1426000E15228C
:1014100014C0DEFF15C0DDFF0FD001019D510CE0AF
:10142000010EF36E040EF3CFDBFF010EF36E060E1A
:10143000F3CFDBFFDE6ADD6AFB0EDBCF14F0FC0EC0
:10144000DBCF15F0153419E214500008000E1554C6
:1014500014E2010EF36E050EF3CFDBFF070EDB6A1D
:10146000FB0EDBCF14F0FC0EDBCF15F0030ED89093
:1014700014361536E806FBE120D0FB0EDBCF14F066
:10148000FC0EDBCF15F0800E151422E0050EDB6A92
:10149000010EF36E070EF3CFDBFFFB0EDBCF14F074
:1014A000FC0EDBCF15F0146C151E000E1522030E7A
:1014B000D89014361536E806FBE1640E1426000EAB
:1014C0001522020E14C0DBFF030E15C0DBFF11D086
:1014D00001019D510EE0010EF36E050EF3CFDBFF0F
:1014E000010EF36E070EF3CFDBFF020EDB6A030E75
:1014F000DB6A0101010E9D6FFD0EDBCF21F1FE0EB7
:10150000DBCF22F1FB0EDBCF23F1FC0EDBCF24F18E
:10151000A1A2FED7A192020EDBCFE6FF030EDBCF26
:10152000E6FFDECFE6FFDDCFE6FF63DEE552E55204
:10153000E552E552040EDB50E8B08B8AE8A08B9AA6
:10154000060EDB50E8B08B80E8A08B90050EDB50D8
:10155000E8B08A8CE8A08A9C070EDB50E8B08A8A43
:10156000E8A08A9A080EE15C02E2E16AE552E16EC7
:10157000E552E7CFD9FF1200D9CFE6FFE1CFD9FF7F
:10158000FE0EDB50090A5AE0010A50E00F0A46E05D
:10159000010A3CE0030A32E0010A28E0070A1EE0E3
:1015A000010A14E0030A0AE0010A4EE1FD0EDB50D5
:1015B000E8B08980E8B048D0899046D0FD0EDB5075
:1015C000E8B08982E8B040D089923ED0FD0EDB5071
:1015D000E8B08984E8B038D0899436D0FD0EDB506D
:1015E000E8B08986E8B030D089962ED0FD0EDB5069
:1015F000E8B0898AE8B028D0899A26D0FD0EDB5061
:10160000E8B08A84E8B020D08A941ED0FD0EDB506A
:10161000E8B08A86E8B018D08A9616D0FD0EDB5066
:10162000E8B08A82E8B010D08A920ED0FD0EDB506E
:10163000E8B08A88E8B008D08A9806D0FD0EDB5062
:10164000E8B08A80E8A08A90E552E7CFD9FF12007F
:10165000D9CFE6FFE1CFD9FFE652DF6AFE0EDB50BD
:10166000090A35E0010A2EE00F0A28E0010A22E00B
:10167000030A1CE0010A16E0070A10E0010A0AE06A
:10168000030A04E0010A26E1895022D08950020BA6
:1016900020E01BD08950040B1CE017D08950080BA8
:1016A00018E013D08950200B14E00FD08A50040B9F
:1016B00010E00BD08A50080B0CE007D08A50020BC8
:1016C00008E003D08A50100B04E0010E02D08A50CB
:1016D000010BDF6EDF50E552E552E7CFD9FF120074
:1016E000D9CFE6FFE1CFD9FFFE0EDB50030A1EE0A3
:1016F000010A14E0030A0AE0010A1EE1FD0EDB50B4
:10170000E8B0898EE8B018D0899E16D0FD0EDB5067
:10171000E8B0898CE8B010D0899C0ED0FD0EDB506B
:10172000E8B08A80E8B008D08A9006D0FD0EDB5081
:10173000E8B08A88E8A08A98E552E7CFD9FF12007E
:10174000D9CFE6FFE1CFD9FFE652DF6AFE0EDB50CC
:10175000030A13E0010A0DE0030A06E0010A12E1A0
:101760008950800B08E003D08950400B04E0010E43
:1017700002D08A50010BDF6E05D08A50100B01E0B9
:10178000010EDF6EDF50E552E552E7CFD9FF1200C0
:10179000D9CFE6FFE1CFD9FFF29AFE0EDB50040D60
:1017A000F3CFE9FFF4CFEAFF8D0EE926010EEA221E
:1017B000EE6AEE6AEE6AEE6AF28AE552E7CFD9FF88
:1017C0001200D9CFE6FFE1CFD9FF040EE126F29A4D
:1017D000FE0EDB50040DF3CFE9FFF4CFEAFF8D0ED0
:1017E000E926010EEA22EECFDFFF010EEECFDBFF8E
:1017F000020EEECFDBFF030EEECFDBFFF28ADECF71
:1018000006F0DECF07F0DECF08F0DDCF09F0DD52C5
:10181000DD52040EE15C02E2E16AE552E16EE5525E
:10182000E7CFD9FF1200B36AB26AB1801200D9CFF4
:10183000E6FFE1CFD9FF020EE126B250DF6E010EC6
:10184000B3CFDBFFDECF14F0DDCF15F014C0F3FF14
:1018500015C0F4FF020EE15C02E2E16AE552E16EBE
:10186000E552E7CFD9FF1200E66AE66A39DFE552B2
:10187000E552E66A010EE66E33DFE552E552E66AAE
:10188000020EE66E2DDFE552E552E66A030EE66EC5
:1018900027DFE552E552050E01010B6F0C6B0101CC
:1018A000050E0B195EE10C515CE1320ED8800D552E
:1018B000010E0E5503E2010EE66E01D0E66AE66AFD
:1018C0000FDFE552E5520101320ED8800F55010EAF
:1018D000105503E2010EE66E02D0E66A010EE66ED6
:1018E000FFDEE552E5520101FF0ED8801155010ED1
:1018F000125503E2010EE66E01D0E66A020EE66EB4
:10190000EFDEE552E5520101FF0ED8801355010EBE
:10191000145503E2010EE66E01D0E66A030EE66E90
:10192000DFDEE552E5520101FF0ED8801555010EAC
:1019300016550AE2010EE66E020EE66ED1DEE552A3
:10194000E552010EE66E07D0E66A020EE66EC8DECC
:10195000E552E552E66A030EE66EC2DEE552E55256
:101960009ED71200E66AE66ABBDEE552E552E66AF9
:10197000010EE66EB5DEE552E552E66A020EE66E4F
:10198000AFDEE552E552E66A030EE66EA9DEE552E9
:10199000E552010EE66EE66AA3DEE552E552320E2E
:1019A000E66EE66AE66EE66ABADCE552E552E552B4
:1019B000E552E80EE66E030EE66E87DCE552E55270
:1019C000E66AE66A8DDEE552E552000EE66EE66AEC
:1019D000E66EE66AA4DCE552E552E552E552C80E31
:1019E000E66EE66A72DCE552E552010EE66EE66EE0
:1019F00077DEE552E552CE0EE66EE668E66EE66804
:101A00008EDCE552E552E552E552E80EE66E030E35
:101A1000E66E5BDCE552E552E66A010EE66E60DEDC
:101A2000E552E552000EE66EE66AE66EE66A77DC9F
:101A3000E552E552E552E552C80EE66EE66A45DC2F
:101A4000E552E552010EE66E020EE66E49DEE55203
:101A5000E552320EE66EE66ACE0EE66EE6685FDCB2
:101A6000E552E552E552E552E80EE66E030EE66EEB
:101A70002CDCE552E552E66A020EE66E31DEE552F6
:101A8000E552000EE66EE66AE66EE66A48DCE5526E
:101A9000E552E552E552C80EE66EE66A16DCE552FE
:101AA000E552010EE66E030EE66E1ADEE552E552D1
:101AB000CE0EE66EE668320EE66EE66A30DCE55281
:101AC000E552E552E552E80EE66E030EE66E65EC71
:101AD00009F0E552E552E66A030EE66E01DEE552D4
:101AE000E552000EE66EE66AE66EE66A18DCE5523E
:101AF000E552E552E552320EE66EE66A000EE66EFB
:101B0000E66A8FEC09F0E552E552E552E552E80E3F
:101B1000E66E030EE66E65EC09F0E552E552000E46
:101B2000E66EE66A320EE66EE66A8FEC09F0E55282
:101B3000E552E552E552E80EE66E030EE66E65EC00
:101B400009F0E552E552000EE66EE66AE66EE66AD8
:101B50008FEC09F0E552E552E552E5521200D9CF7B
:101B6000E6FFE1CFD9FF040EE126FD0EDBCF14F036
:101B7000FE0EDBCF15F0B40E145C000E155869E2B2
:101B8000D950FD0FE96EFF0EDA20EA6EEE50ED102F
:101B900007E1010EF36EFD0EF3CFDBFFFE0EDB6AF5
:101BA000FD0EDBCF14F0FE0EDBCF15F0166A176AC0
:101BB000410E145E000E155A165A175A14C0DFFF54
:101BC000010E15C0DBFF020E16C0DBFF030E17C0AF
:101BD000DBFFD9CFE9FFDACFEAFFC80E0B6E0C6A44
:101BE0000D6A0E6AEECF06F0EECF07F0EECF08F0EA
:101BF000EFCF09F0D3EC1BF005C0EDFF04C0EDFF03
:101C000003C0EDFF02C0EFFFD9CFE9FFDACFEAFF53
:101C1000730E0B6E0C6A0D6A0E6AEECF06F0EECFF5
:101C200007F0EECF08F0EFCF09F06DEC1AF009C025
:101C3000EDFF08C0EDFF07C0EDFF06C0EFFFD9CFF5
:101C4000E9FFDACFEAFF2C0EEE5E010EEE5A000E2F
:101C500064D0FD0EDBCF14F0FE0EDBCF15F0BE0E10
:101C6000145C020E15585CE2FD0EDBCF14F0FE0E84
:101C7000DBCF15F0166A176AB40E145E000E155A03
:101C8000165A175A14C0DFFF010E15C0DBFF020EF3
:101C900016C0DBFF030E17C0DBFFD9CFE9FFDACF99
:101CA000EAFF580E0B6E020E0C6E0D6A0E6AEECF36
:101CB00006F0EECF07F0EECF08F0EFCF09F0D3EC4F
:101CC0001BF005C0EDFF04C0EDFF03C0EDFF02C037
:101CD000EFFFD9CFE9FFDACFEAFF100E0B6E020E4D
:101CE0000C6E0D6A0E6AEECF06F0EECF07F0EECF67
:101CF00008F0EFCF09F06DEC1AF009C0EDFF08C055
:101D0000EDFF07C0EDFF06C0EFFFD9CFE9FFDACF47
:101D1000EAFF640EEE5E000EEE5AEE5AEE5A5DD009
:101D2000FD0EDBCF14F0FE0EDBCF15F0166A176A3E
:101D3000BE0E145E020E155A000E165A175A14C023
:101D4000DFFF010E15C0DBFF020E16C0DBFF030E26
:101D500017C0DBFFD9CFE9FFDACFEAFFF40E0B6E35
:101D6000010E0C6E0D6A0E6AEECF06F0EECF07F094
:101D7000EECF08F0EFCF09F0D3EC1BF005C0EDFF7C
:101D800004C0EDFF03C0EDFF02C0EFFFD9CFE9FFB4
:101D9000DACFEAFF0F0E0B6E010E0C6E0D6A0E6AA3
:101DA000EECF06F0EECF07F0EECF08F0EFCF09F060
:101DB0006DEC1AF009C0EDFF08C0EDFF07C0EDFFA4
:101DC00006C0EFFFD9CFE9FFDACFEAFFF40EEE2627
:101DD000010EEE22000EEE22EE22DFCF14F0010EF5
:101DE000DBCF15F014C0F3FF15C0F4FF040EE15C67
:101DF00002E2E16AE552E16EE552E7CFD9FF120057
:101E00003CEC14F0FB0EDBCFF3FFDB06F3500009D4
:101E10000AE08AEC14F0FA0EF5EC14F0F3E1151C6C
:101E2000F1E1010E01D0000E6BEF14F03CEC14F068
:101E30003B0EE12402E3E168E652E16E010EDB6A4B
:101E4000020EDB6AF90EDBCFF6FFFA0EDBCFF7FFEF
:101E5000FB0EDBCFF8FF0800F550DF6EDF5002E12C
:101E60008FEF13F0250EDF5C02E082EF13F0030E1C
:101E7000DB6A040EDB6A050EDB6A060EDB6A070E00
:101E8000DB6AA4EC13F02D0EDF5C0CE02B0EDF5CA4
:101E900009E0200EDF5C06E0230EDF5C03E0300E7D
:101EA000DF5C1AE1DF50300A14E0130A0FE0030A86
:101EB0000AE00B0A05E0060AE4E1030EDB80E1D745
:101EC000030EDB82DED7030EDB84DBD7030EDB865B
:101ED000D8D7030EDB88D5D72A0EDF5C1BE1A0EC38
:101EE00013F0EEEC13F010E0030EDB8008680968D5
:101EF000130EDBCF0DF0140EDBCF0EF0BFEC1AF09B
:101F0000040E06C0DBFF03D0130ED7EC13F0A4ECD5
:101F100013F00BD0090EDB6A45EC14F003E0B9ECCA
:101F200014F0FAD7090ED7EC13F0030EDBB0DB98F0
:101F30002E0EDF5C1BE1A4EC13F02A0EDF5C0BE13C
:101F4000A0EC13F0EEEC13F003E1130E29EC14F007
:101F5000A4EC13F00BD0090EDB6A45EC14F003E09F
:101F6000B9EC14F0FAD7090E29EC14F0680EDF5C16
:101F700007E1A4EC13F0680EDF5C1DE1030E18D03E
:101F8000740EDF5C17E07A0EDF5C14E0480EDF5C55
:101F900006E0540EDF5C03E05A0EDF5C02E1020E45
:101FA00007D06C0EDF5C03E06A0EDF5C04E1010E1B
:101FB0007CEC14F0C9DBDF506E0A01E17FD31E0A0E
:101FC00001E192D1200A01E18FD13F0A01E149D11B
:101FD0001A0A01E146D10D0A01E143D1200A01E1CB
:101FE00040D13A0A01E13DD1200A01E13AD1260A65
:101FF00001E135D10D0A01E132D11A0A01E1D9D04E
:10200000200A4AE0300A1FE0460A0EE0250A01E0F5
:1020100083D3D950F90FE96EFF0EDA20EA6E010E74
:10202000EE5E000EEE5AEE5A8AEC14F0250EE66EC5
:1020300095DB03E1151C01E169D386EC14F001E2A4
:102040006BD3DB2A69D3080EDB6A040EDB50010870
:1020500006E2040EDB044EEC14F0DB508BDB080EC2
:10206000DB5009E0030EDB50010B05E172DB01E000
:102070004DD3080EDB6A64DBEFCFDFFFFEEC14F01C
:1020800003E1151C01E142D386EC14F001E3DB2AE5
:1020900060DB01E141D33AD3070EDB5002080FE1C8
:1020A000CAEC14F0030E91EC14F00E0EEECFDBFF31
:1020B0000F0EEECFDBFF100EEECFDBFF20D0F70EC2
:1020C000DBCF17F0F80EDBCF18F0020E175E000E14
:1020D000185AF70E17C0DBFFF80E18C0DBFF17C049
:1020E000E9FF18C0EAFF81EC14F0166A0E0E14C066
:1020F000DBFF0F0E15C0DBFF100E16C0DBFF0E0E50
:10210000DBCFE6FF0F0EDBCFE6FF100EDBCFE6FFE7
:1021100051EC1CF0E552E552E552130E07C0DBFF0F
:10212000140E08C0DBFF060EDB5005E0130EC5ECF5
:1021300014F001E26ADBE9EC14F002E2130E37DB83
:10214000ACEC14F006E0040EC5EC14F002E2050E4F
:102150002EDB030EDBB005D0FCDA01E0D7D2080E8F
:10216000DB6A090EDB6A0E0EDBCFF6FF0F0EDBCF4C
:10217000F7FF100EDBCFF8FF0800F550DF6EDF50E1
:1021800014E0EFEC14F011E2FEEC14F003E1151C86
:1021900001E1BCD2BBDB01E3DB2A090EDB2AD9500B
:1021A0000E0FE96E000ECBDBE7D7D3DA01E1B4D234
:1021B000ADD2C6DA110EEECFDBFF120EEDCFDBFF94
:1021C000110EDBCFE6FF120EDBCFE6FF43EC1CF077
:1021D000E552E552130EF3CFDBFF140EF4CFDBFF15
:1021E000060EDB5004E0130ED0DB01E20EDBE9EC5F
:1021F00014F002E2130EDBDAAFDB05E0040EC5DB00
:1022000002E2050ED4DA030EDBB005D0A2DA01E05B
:102210007DD2080EDB6A090EDB6A110EDBCFE9FF07
:10222000120EDBCFEAFFEFCFDFFFDF5014E0D7DB8A
:1022300012E2E4DB03E1151C01E168D267DB01E394
:10224000DB2A090EDB2A110EDB2ADBCFE9FF120E97
:10225000E8E3DB2AE6D77DDA01E15ED257D2030E4E
:10226000DB8E070EDB0410E195DB040E5ADB0A0E51
:10227000EECFDBFF0B0EEECFDBFF0C0EEECFDBFF66
:102280000D0EEECFDBFF6CD0070EDB5003082CE108
:10229000030EDBAE0DD0B2DA020E76DAEFCF14F019
:1022A000156A166A176A14AE39D01568166835D0E3
:1022B000F70EDBCF15F0F80EDBCF16F0020E155E31
:1022C000000E165AF70E15C0DBFFF80E16C0DBFF26
:1022D00015C0E9FF16C0EAFFEFCF14F00A0E14C0D4
:1022E000DBFF0B0EDB6A38D0070EDB50020809E17A
:1022F000030EDBAE04D059DB16AE10D00ED055DB8A
:102300000DD0030EDBAE12D079DA020E3DDAF9DA27
:10231000166A176A15AE02D016681768E2DA0C0E54
:1023200016C0DBFF0D0E17C0DBFF1AD0F70EDBCF98
:1023300016F0F80EDBCF17F0020E165E000E175ADD
:10234000F70E16C0DBFFF80E17C0DBFF16C0E9FF63
:1023500017C0EAFFD6DAC5DA0C0EDB6A0D0EDB6AAF
:10236000060EDB5005E1010EF36E050EF3CFDBFF29
:10237000150EDB6A160EDB6AD950370F146E000E8D
:10238000DA20156E390E14C0DBFF3A0E15C0DBFFE4
:10239000380EDB6A080EDB6A0A0EAEDADF50780A06
:1023A00012E0200A10E0280A0CE0200A0AE03F0AA6
:1023B00006E00D0A02E0200A08E1020E05D0080E30
:1023C00003D0080EDF26100E97DA030EDBBE02D014
:1023D000DB92DB94DB50800B24E08ADAD890030E8A
:1023E000EB50000A08E6000EEE5C000EEE58000E00
:1023F000EE58000EEE5815E213DA0B680C680D6803
:102400000E68D3EC1BF00A0E02C0DBFF0B0E03C0FC
:10241000DBFF0C0E04C0DBFF0D0E05C0DBFF2D0E35
:1024200008D0030EDBA202D02B0E03D0DBA408D011
:10243000200EF36E170EF3CFDBFF150EDB2A02D052
:10244000170EDB6A050EDB5003E1B7D901E189D035
:10245000EC0E146E390E156E000E166E070EDBCFE5
:1024600017F0186A196A1A6A17C00BF018C00CF036
:1024700019C00DF01AC00EF0D3D976EC1CF0145030
:102480000224F36E15500320F46E16500420F86EEB
:10249000F4CFF7FFF3CFF6FF0800090EF5CFDBFF0F
:1024A000580EDF5C0FE1610EF36E090E7BD90AE373
:1024B000200E146E090EDBCFE7FF1450E75E090E05
:1024C000E7CFDBFF070EDBCF14F0156A166A176A39
:1024D0000FDA14C00BF015C00CF016C00DF017C0C9
:1024E0000EF0EECF06F0EECF07F0EECF08F0EFCF14
:1024F00009F076EC1CF009C0EDFF08C0EDFF07C045
:10250000EDFF06C0EFFF390EDBCFE9FFDB063A0E29
:10251000DBCFEAFF01E2DB06090EDBCFEFFF150E92
:10252000DB2A4BD995E1030EDBA61DD06F0EDF5CD5
:1025300006E1C1D918E3150EDB285BDA14D0780E5A
:10254000DF5C09E0580EDF5C06E0620EDF5C03E052
:10255000420EDF5C08E1020EF36E160EF3CFDBFFD6
:1025600002D0150EDB6A030EDB50100B0EE0040EDA
:10257000DBCF14F0050EDB50D880145406E2060EB3
:10258000DB5003E1040EDB5034DA95D90AE2050E84
:10259000DBCFE7FF150EDB50E75E050EE7CFDBFF75
:1025A00002D0050EDB6A040EDBCF14F0160E45D9FF
:1025B000D880145414E2160EDBCFE6FF150EDBCFE5
:1025C000E6FF040EDBCFE6FF050EDB50E552E75CCD
:1025D000E552D880E754E552D880E7545FD9030E1E
:1025E000DB50010B0BE1080EDB5008E0B2D801E034
:1025F0008DD0080EDB50BED8080EDB6A170EDB50FC
:1026000007E088D9170EF1D903E1151C01E17ED04E
:10261000160EDB5016E07ED9300EE66E9FD802E132
:10262000151C74E077D9DFCFE6FF91EC1BF0E55283
:10263000E552E552F4CF15F00001F31C02E1151C40
:1026400065E0050EDBCF14F0160EDB50D880145475
:1026500009E2050EDBCFE7FF160EDB50E75E050E45
:10266000E7CFDBFF300EE66E050ECBD94FE1390E1A
:10267000DB2ADBCFE9FF3A0E01E3DB2ADBCFEAFFFF
:10268000090EEFCFDBFFDB500EE044D9090EADD9C8
:1026900002E1151C3BE0390EDB2ADBCFE9FF3A0EE5
:1026A000EDE3DB2AEBD755D831E1160EDBCFE6FFA1
:1026B000080EC3D8E552E7245DD82ED0070EDB50B4
:1026C000030A1CE0010A14E0030A07E07BD9DBCF10
:1026D000EEFF020EDBCFEDFF1FD0F5D8196A17AE63
:1026E00002D0186819682CD8BCD819C0EEFF14D0D5
:1026F000EAD817BE186824D8B4D80ED063D9DBCF77
:10270000EFFF0AD07BD905E1151C03E1F368F468FB
:1027100010D0FCD801E3DB2A79D92BEF0FF0010EA2
:10272000DBCF14F0020EDBCF15F014C0F3FF15C0A1
:10273000F4FF3B0EE15C02E2E16AE552E16ECBD0D0
:1027400029D9020E91EF14F061D90800F550DF6E1F
:102750001200200EE66E080E01EF15F091EC1BF052
:10276000E552E552E552F3CF14F0F4CF15F0000135
:10277000F31C1200146E156AD950010F4DD9145074
:10278000EE261550ED221200185E000E195AF70EB3
:1027900018C0DBFFF80E19C0DBFF18C0E9FF19C035
:1027A000EAFF1200DBCFF4FFF350F45C1200DB50C1
:1027B000E76E040EE7CFDBFF12000A0EDBCF14F04A
:1027C0000B0EDBCF15F00C0EDBCF16F00D0EDBCFB2
:1027D00017F014501510161017101200130EEECF2C
:1027E000DBFF140EEDCFDBFF130EDBCF14F0140E66
:1027F000DBCF15F00001800E15141200F70EDBCFB1
:1028000018F0F80EDBCF19F01200050EDB50E66E63
:10281000D950130F01D9E552E750EE6EED6A120060
:102820000A0EDBCF06F00B0EDBCF07F00C0EDBCF72
:1028300008F00D0EDBCF09F01200DBCFE6FF150E1E
:10284000DBCFE6FF050EDB50E552E724E552E72437
:102850001200DB50CED8010EF36E060EF3CFDBFF75
:102860001200EE50EFCFEAFFE96E16C0EEFF17C080
:10287000EEFF18C0EEFF1200D9CFE6FFDACFE6FF79
:10288000E1CFD9FFE2CFDAFF1200DFCFE6FFE66A41
:102890009AEC1CF0E552E552F3501200E76E080E78
:1028A000E7CFDBFF1200EECF14F0EECF15F0EFCF45
:1028B00016F0176A1200050EDBCF14F0150EDB5070
:1028C000D88014541200010EDBCF16F0020EDBCFBD
:1028D00017F0186A1200E552E5CFDAFFE7CFD9FF0B
:1028E00012000A0E14C0DBFF0B0E15C0DBFF120036
:1028F000D9500A0F0CEF15F0F36E070EF3CFDBFF84
:102900001200EECF14F0EFCF15F01200010EDB2A0B
:10291000020E1200FC0EDBCFE6FFFD0EDBCFE6FF62
:102920001200145E000E155AF70E14C0DBFFF80EED
:1029300015C0DBFF14C0E9FF15C0EAFF1200DA2062
:10294000EA6EEF2AEECFF6FF000EEF22EECFF7FF92
:10295000EF22EECFF8FF1200040EDBCFE6FF130EDE
:10296000DB50E552E75C9ADFDB5004DF060EDB50FC
:102970001200090EDB500A0DF350DF24D00FE76E72
:10298000090EE7CFDBFFA4EF13F0DB50F36E050E6B
:10299000D2EF13F0F70EDBCF14F0F80EDBCF15F00B
:1029A0001200DFCFE6FFAEEF13F028DF030EECDE00
:1029B00053EF14F000EC0FF0E552E552E552E5520A
:1029C00000091200BDDEEE50EFCFEAFFE96E010E06
:1029D0001200130EDB50F36E040ED2EF13F0040E50
:1029E000DB50F36E090ED2EF13F0DBCFE6FFAEEF54
:1029F00013F0E76E050EE7CFDBFF12008BDFD1EFA0
:102A000014F0DBCFE6FF86DFDAEF14F0D950F90FD0
:102A1000E96EFF0E9FEF14F0E96E000EDA20EA6E09
:022A20001200A2
:0E2A22009D9A9E9A040EAC6E800EAB6EB88626
:102A3000B06A440EAF6E240EAC6E900EAB6E000109
:102A4000E76B200EE75D09E2E751EA6AC40FE96E21
:102A5000000EEA22EF6AE72BF4D7E86BE8C0E7F054
:102A6000EA6B9F9A9E9A9D8A1200D9CFE6FFE1CF2A
:102A7000D9FFACA2FED7FE0EDB50AD6EE552E7CF1C
:102A8000D9FF1200D9CFE6FFE1CFD9FFFD0EDBCF92
:102A9000E9FFFE0EDBCFEAFFEF500EE0FD0EDBCFCD
:102AA000E9FFDB2AFE0EDBCFEAFF01E3DB2AEF5072
:102AB000E66EDBDFE552EAD7E552E7CFD9FF120039
:102AC000D9CFE6FFE1CFD9FFFC0EDBCFF6FFFD0E3D
:102AD000DBCFF7FFFE0EDBCFF8FF0800F55016E066
:102AE000D950FC0FE96EFF0EDA20EA6EEFCFF6FF49
:102AF000EE2AEFCFF7FF000EEE22EFCFF8FFEE2227
:102B00000800F550E66EB1DFE552DED7E552E7CFBB
:102B1000D9FF1200D9CFE6FFE1CFD9FFE65200017D
:102B2000E851EA6AC40FE96E000EEA22EFCFDFFF38
:102B3000200E146EE82BE851D880145401E3E86BA2
:102B4000DF50E552E552E7CFD9FF12000001E7510F
:102B5000E85D01E1000C010CD9CFE6FFE1CFD9FF20
:102B6000190EE126140EDB6A0001E56BE66B00012D
:102B7000640ED880E555000EE65501E234D0E6DF5C
:102B8000000901E1F4D7C6DFE76E110EE7CFDBFFE6
:102B9000110EDBCF14F0200EE76E1418E8AE02D051
:102BA000E73402D0E750145C01E21DD0100E146E21
:102BB000140EDB50145C01E216D0D9CF14F0DACF3A
:102BC00015F0140EDBCFF3FFDB2AF3500F011424B2
:102BD000E96E000E1520EA6E110EDBCFEFFF00014B
:102BE000E56BE66BC4D7D9CF14F0DACF15F0140E2D
:102BF000DB500F011424E96E000E1520EA6EEF6A17
:102C0000140EDB5001E1D4D0DF50520A01E1C9D0EB
:102C1000040A01E1C4D01B0A01E186D0020A67E080
:102C2000030A48E0050A2CE03A0A29E0200A01E0FC
:102C3000BAD0010EDB50310A10E0010A01E01AD0CF
:102C4000030EDB50310804E1BDD80101A88104D096
:102C50000101A8910101A96B0DD0030EDB503108D1
:102C600002E1010E01D0000E0101E8B0A883E8A046
:102C7000A89300D0010E01010B6F0C6B99D098D076
:102C8000010EDB5044080EE1300EF36E030EDBCF75
:102C9000F4FFF350F45C06E3390E146E030EDB50C0
:102CA000145C01E285D0030EDB50D00F0101A96F47
:102CB00089D87ED0010EDB50D00FE76E120EE7CF21
:102CC000DBFF030EDB50D00FE76E130EE7CFDBFF09
:102CD0000101A9510BE1130EDBCFE6FF120EDBCF92
:102CE000E6FF70EC0BF0E552E55200D061D0010E2A
:102CF000DB50D00FE76E120EE7CFDBFF030EDB5089
:102D0000D00FE76E130EE7CFDBFF0101A9510BE1F6
:102D1000130EDBCFE6FF120EDBCFE6FFBCEC0AF0B2
:102D2000E552E55200D044D0030EE66ED950020FB2
:102D3000E66E000EDA20E66EFAD9E552E552E5526B
:102D4000150EF3CFDBFF160EF4CFDBFF030EE66E9E
:102D5000D950060FE66E000EDA20E66EE8D9E5528D
:102D6000E552E552170EF3CFDBFF180EF4CFDBFF71
:102D70000101A95113E1170EDBCFE6FF180EDBCFDF
:102D8000E6FF150EDBCFE6FF160EDBCFE6FF8FEC7E
:102D900009F0E552E552E552E55200D009D06ED86F
:102DA00007D0FF0005D0150EE66E5FDEE55200D0BD
:102DB000190EE15C02E2E16AE552E16EE552E7CF0D
:102DC000D9FF1200D9CFE6FFE1CFD9FF090EE126E6
:102DD000D950010FE96EDACFEAFF690EEE6E6F0E81
:102DE000EE6E5B0EEE6E300EEE6E5D0EEE6E3D0E16
:102DF000EE6E310EEE6EEE6A0101A95127E1DF6A37
:102E00000A0EDF5C23E2300EDF24E76E040EE7CF0C
:102E1000DBFFDF50EA6A9E0FE96E010EEA22EF50F7
:102E2000300FE76E070EE7CFDBFF080EDB6AD950E5
:102E3000010FE66E000EDA20E66E24DEE552E55262
:102E40002C0EE66E12DEE552DF2ADAD7790E146E0A
:102E5000390E156E166A14C0E6FFE66E16C0E6FF60
:102E60002FDEE552E552E552090EE15C02E2E16A2D
:102E7000E552E16EE552E7CFD9FF1200730E146EF2
:102E8000390E156E166A14C0E6FFE66E16C0E6FF30
:102E900017DEE552E552E552660E146E390E156ED8
:102EA000166A14C0E6FFE66E16C0E6FF09DEE552BC
:102EB000E552E552790E146E390E156E166A14C07D
:102EC000E6FFE66E16C0E6FFFBDDE552E552E55291
:102ED0001200D9CFE6FFE1CFD9FF160EE12601019E
:102EE000A95152E1020EDB6A0A0EF36E020EDBCF2D
:102EF000F4FFF350F45C37E2020EDB50EA6A9E0FF7
:102F0000E96E010EEA22EF500FE1020EDBCFE6FF81
:102F100028EC0BF0E552000903E1146A156A12D09F
:102F20001468030E156E0ED0020EEA6ADB34FE0B37
:102F3000EA36E96E0D0EE926010EEA22EECF14F014
:102F4000EFCF15F0020EEA6ADB34FE0BEA36E96ECB
:102F5000AA0EE926010EEA2214C0EEFF15C0EDFF0D
:102F6000020EDB2AC1D7E66AA0EC0BF0E552E76E51
:102F7000140EE7CFDBFF010EE66EA0EC0BF0E5527E
:102F8000E76E150EE7CFDBFF020EDB6A0A0EF36E6B
:102F9000020EDBCFF4FFF350F45C34E2020EEA6A77
:102FA000DB34FE0BEA36E96EAA0EE926010EEA22B0
:102FB000EECFE6FFEFCFE6FF020EDB28E66EE66A15
:102FC0005B0E146E390E156E166A14C0E6FFE66EBF
:102FD00016C0E6FFD950030FE66E000EDA20E66E4B
:102FE000ECEC1AF0176E090EE15E1750D950030F82
:102FF000E66E000EDA20E66E45DDE552E552020E81
:10300000DB2AC4D7020EDB6AD950030F146E020EFE
:10301000DBCFF3FFDB2AF3500F011424E96E000E1F
:10302000DA20EA6E4C0EEF6ED950030F146E020ECA
:10303000DBCFF3FFDB2AF3501424E96E000EDA2015
:10304000EA6E450EEF6ED950030F146E020EDBCF01
:10305000F3FFDB2AF3501424E96E000EDA20EA6E47
:10306000440EEF6ED950030F146E020EDBCFF3FF48
:10307000DB2AF3501424E96E000EDA20EA6E3D0ECE
:10308000EF6E140EDB50300FE66ED950030F146E46
:10309000020EDBCFF3FFDB2AF3501424E96E000E9F
:1030A000DA20EA6EE552E750EF6E150EDB50300F76
:1030B000E66ED950030F146E020EDBCFF3FFDB2A4E
:1030C000F3501424E96E000EDA20EA6EE552E75060
:1030D000EF6ED950030F146EDACF15F0020EDB50ED
:1030E0001424E96E000EDA20EA6EEF6AD950030F5D
:1030F000E66E000EDA20E66EC5DCE552E552790E8A
:10310000146E390E156E166A14C0E6FFE66E16C010
:10311000E6FFD6DCE552E552E552160EE15C02E22E
:10312000E16AE552E16EE552E7CFD9FF1200D9CF4F
:10313000E6FFE1CFD9FF060EE126010EF36E040E85
:10314000F3CFDBFF050EDB6A020EDB6A030EDB6AE0
:10315000DF6AFC0EDB50DF5C43E2FD0EDBCFE9FFF4
:10316000DB2AFE0EDBCFEAFF01E3DB2A010EEFCF05
:10317000DBFFDB5035E0010EDB502D0805E1040ECE
:10318000DB68050EDB682AD0300EF36E010EDBCF54
:10319000F4FFF350F45C22E3390E146E010EDB50A1
:1031A000145C1CE3D950020FE96EDACFEAFF0A0E75
:1031B000EC02F3CFEDFFEF02F3CFEEFFF450ED267C
:1031C000010EDB50D00F146E156AD950020FE96E54
:1031D000DACFEAFF1450EE261550ED22DF2AB9D7D8
:1031E000040EDBCF14F0050EDBCF15F0D950020F23
:1031F000E96EDACFEAFF14C00DF015C00EF0EECF85
:1032000008F0EDCF09F0A1EC1AF006C0EEFF07C000
:10321000EDFF020EDBCF14F0030EDBCF15F014C070
:10322000F3FF15C0F4FF060EE15C02E2E16AE5522D
:0A323000E16EE552E7CFD9FF12006E
:06323A00C76A110EC86E08
:10324000280EC66E400EC56E948694889F869E9604
:103250009D86A286A196A08606D8A00EE66EDCEC1E
:103260001CF0E5521200D9CFE6FFE1CFD9FFE652BC
:10327000C950DF6EC69AC69EC69CC59CC59A9E96CE
:10328000A1960001BB6BB66BB76BBA6BC68AE552F1
:10329000E552E7CFD9FF12000001B66B1F0EC5142F
:1032A00003E1C750040B07E00A0E146EB651145C1C
:1032B000F5E21DEF19F01200D9CFE6FFE1CFD9FFFB
:1032C000E652DF6A020E0001B65DFCE3E5DFFE0EAA
:1032D000DBCFB9F0FD0EDBCFB8F00001B66B010E0D
:1032E000BB6FC580BB5112E0020E146EB651145C68
:1032F00003E2800EBB11BA6FBA51F4E0C5849DDFC2
:10330000DF2A050EDF5CE9E3000E02D0B66B010E8A
:10331000E552E552E7CFD9FF1200D9CFE6FFE1CF62
:10332000D9FF020E0001B65DFCE3B6DFFE0EDB50F6
:1033300001090001B96FFD0EDBCFB8F0B66B0B0EC3
:10334000BB6FC580BB510EE0020E146EB651145C0B
:1033500003E2800EBB11BA6FBA51F4E0C5846DDF91
:10336000000E02D0B66B010EE552E7CFD9FF120076
:10337000D9CFE6FFE1CFD9FFE652DF6A060EDF5C68
:1033800013E2DF50EA6A800FE96E000EEA22EF5086
:10339000E66EDF50EA6A860FE96E000EEA22E55219
:1033A000E750EF6EDF2AEAD7060EE66E140EE66EE1
:1033B00083DFE552E552E552E552E7CFD9FF12002F
:1033C000D9CFE6FFE1CFD9FFE652DF6A060EDF5C18
:1033D00009E2DF50EA6A800FE96E000EEA22EF6A26
:1033E000DF2AF4D7C5DFE552E552E7CFD9FF120057
:1033F000D9CFE6FFE1CFD9FFE652DF6ADF50DF2AFF
:10340000EA6A860FE96E000EEA22030EEF6EDF50C5
:10341000DF2AEA6A860FE96E000EEA22120EEF6ECC
:10342000DF50DF2AEA6A860FE96E000EEA22FE0EFE
:10343000DBCFEFFFDF50DF2AEA6A860FE96E000E6E
:10344000EA22FC0EDBCFEFFFDFCFE6FF600EE66E79
:1034500033DFE552E552E552E552E7CFD9FF1200DE
:10346000D9CFE6FFE1CFD9FF020EE126DF6ADF50B8
:10347000DF2AEA6A860FE96E000EEA22010EEF6E7D
:10348000DF50DF2AEA6A860FE96E000EEA22820E1A
:10349000EF6EDFCFE6FF600EE66E0EDFE552E5521F
:1034A000000909E0010EE66E600EE66E36DFE552B9
:1034B000E552000902E1000E04D0010E86C0DBFFD8
:1034C000DB50146E020EE15C02E2E16AE552E16E4D
:0A34D0001450E552E7CFD9FF1200B7
:0634DA00006AE86A0EAE74
:1034E0007AEF1AF00B6C0C1E0D1E0E1E0C220D2214
:1034F0000E22001E09AE85EF1AF0066C071E081E8C
:10350000091E072208220922001E76EC1CF009BEC3
:103510009CEF1AF000AE000C066C071E081E091E78
:10352000E86A072208220922026C031E041E051EF7
:10353000032204220522000C00BE8CEF1AF0018841
:10354000FF0C08C012F008500D02F4CF07F0F3CFC3
:1035500006F009500E02F4CF09F0F3CF08F00D0287
:10356000F3500726F4500822E86A092212500E028E
:10357000F3500726F4500822E86A0922000C09C01B
:1035800013F008C012F008500D02F4CF07F0F3CF8B
:1035900006F009500E02F4CF09F0F3CF08F00D0247
:1035A000F3500726F4500822E86A092212500E024E
:1035B000F3500726F4500822E86A09220EAEE5EF20
:1035C0001AF01250085E1350095A13AE000C0D5039
:0835D000085E0E50095A000CC0
:0835D800D9CFE6FFDACFE6FFD0
:1035E000E1CFD9FFE2CFDAFFE652E652E652E652E9
:1035F000D950F90F146EFF0EDA20156E020E14C0AA
:10360000DBFF030E15C0DBFF020EDBCFE6FF030E70
:10361000DBCFE6FFF90EDBCFE6FFFA0EDBCFE6FFEE
:10362000FB0EDBCFE6FFD950FC0FE66EFF0EDA2073
:10363000E66E16EC0FF0146E070EE15C02E2E16A32
:10364000E552E16E1450F3CFDEFFF4CFDDFFFC0E48
:10365000DBCFE9FFFD0EDBCFEAFFEF6ADECF14F030
:10366000DDCF15F014C0F3FF15C0F4FF040EE15CCC
:1036700002E2E16AE552E16EE552E5CFDAFFE7CF1B
:04368000D9FF12005C
:0C3684001E0EF66E080EF76E000EF86EBB
:1036900001010900F550E06F0900F550E16F03E109
:1036A000E06701D03DD00900F550DB6F0900F5500F
:1036B000DC6F0900F550DD6F09000900F550E96E77
:1036C0000900F550EA6E090009000900F550DE6FA7
:1036D0000900F550DF6F09000900F6CFE2F1F7CFDE
:1036E000E3F1F8CFE4F1DBC1F6FFDCC1F7FFDDC1A8
:1036F000F8FF0101DE5302E1DF5307E00900F55056
:10370000EE6EDE07F8E2DF07F9D7E2C1F6FFE3C1AC
:10371000F7FFE4C1F8FF0101E007000EE15BBFD74E
:02372000120095
:0E372200D9CFE6FFDACFE6FFE1CFD9FFE2CF45
:10373000DAFFFB0EDBCF14F0FC0EDBCF15F000013F
:10374000800E15141AE1FB0EDBCFE9FFFC0EDBCF78
:10375000EAFFEECFF3FFEDCFF4FFEE2A000EEF22EB
:10376000F3CFE9FFF4CFEAFFFD0EDBCFEFFFEF5021
:10377000156AF36E15C0F4FF10D0FB0EDB50FE0887
:1037800006E1FD0EDBCFE6FFCEEC1CF005D0FD0E12
:10379000DBCFE6FF03EC04F0E552E552E5CFDAFFBC
:0637A000E7CFD9FF120083
:0A37A60006500B02F3CF02F0F4CF3F
:1037B00003F00C02F3500326000EF420046E0650B2
:1037C0000D02F3500426000EF420056E06500E0282
:1037D000F350052607500B02F3500326F450042241
:1037E000000E052207500C02F3500426F450052267
:1037F00007500D02F350052608500B02F350042623
:10380000F450052208500C02F350052609500B0213
:06381000F3500526120032
:0A3816000101320E0D5D010E0E5986
:103820000AE2000EE66EE66AE66EE66A8FEC09F0E2
:10383000E552E55225D0640EE66EE66A000EE66EAD
:10384000E66A8FEC09F0E552E552E552E5522C0E9E
:10385000E66E010EE66E65EC09F0E552E552000EEB
:10386000E66EE66AE66EE66A8FEC09F0E552E5522E
:10387000E552E5522C0EE66E010EE66E65EC09F09F
:06388000E552E552C8D735
:0A388600FE0EE3CFE9FFFF0EE3CFD3
:10389000EAFFF36AF46AEE5203E0F34AF42AFBD734
:1038A0001200FF0EE3CFF8FFE552FF0EE3CFF7FF64
:1038B000E552FF0EE3CFF6FFE552E66AE66AE66AF6
:1038C0000900F55209E0FD0EE32A05E1FE0EE32AA8
:1038D00002E1FF0EE32AF4D7FD0EE3CF07F0FE0E60
:0C38E000E3CF08F0FF0EE3CF09F0120068
:0438EC00056A046AFB
:1038F000036A026A200EE76ED8900636073608364D
:10390000093602360336043605360B50025C0C507D
:1039100003580D5004580E50055809E30B50025E31
:103920000C50035A0D50045A0E50055A062AE72E21
:04393000E4D71200C6
:0C393400F36AF46AFF0EE124E96EFF0E56
:10394000E220EA6EED6607D02F0EEF6404D03A0E47
:08395000EF6001D0F32A120020
:083958000D0A00434E25643DF9
:10396000253034752C00202020205665722E352EEF
:0C39700031340020544A3342000D0A009C
:04397C00800EF36E58
:1039800000EE00F00F0E01D81200EA6002D0EE6ADD
:0C399000FCD7F350E9601200EE6AFCD78F
:04399C00FF0EE350E7
:1039A000ACBA04D0AF6AAB8EAC8A949CACA2FED702
:0839B000AD6EF36EF46A120023
:0839B800FF0EE3501D6E1B0E13
:1039C00000D001D0200EE76EE72EFED71D2EFAD7CD
:0439D00000D0120011
:0C39D4001EEE00F02EEE00F0F86A018CF0
:0C39E00042EC1BF0B7EC08F0FDD7120021
:0439EC003031323311
:0D39F000343536373839616263646566002E
:0339FD0003070BB2
:0F3A00000F1323272B2F330102040810204080BF
:00000001FF
